{
  "contractName": "Auth",
  "abi": [
    {
      "inputs": [
        {
          "internalType": "address",
          "name": "",
          "type": "address"
        }
      ],
      "name": "usersList",
      "outputs": [
        {
          "internalType": "string",
          "name": "username",
          "type": "string"
        },
        {
          "internalType": "address",
          "name": "addr",
          "type": "address"
        },
        {
          "internalType": "bytes32",
          "name": "nonce",
          "type": "bytes32"
        }
      ],
      "stateMutability": "view",
      "type": "function",
      "constant": true
    },
    {
      "inputs": [
        {
          "internalType": "address",
          "name": "_address",
          "type": "address"
        }
      ],
      "name": "getUserAndUpdateNonce",
      "outputs": [
        {
          "internalType": "string",
          "name": "",
          "type": "string"
        }
      ],
      "stateMutability": "nonpayable",
      "type": "function"
    },
    {
      "inputs": [],
      "name": "generateRandomSequence",
      "outputs": [
        {
          "internalType": "bytes32",
          "name": "",
          "type": "bytes32"
        }
      ],
      "stateMutability": "view",
      "type": "function",
      "constant": true
    },
    {
      "inputs": [
        {
          "internalType": "string",
          "name": "_username",
          "type": "string"
        },
        {
          "internalType": "address",
          "name": "_address",
          "type": "address"
        },
        {
          "internalType": "string",
          "name": "_nonce",
          "type": "string"
        }
      ],
      "name": "createUser",
      "outputs": [],
      "stateMutability": "nonpayable",
      "type": "function"
    },
    {
      "inputs": [
        {
          "internalType": "address",
          "name": "_address",
          "type": "address"
        }
      ],
      "name": "fetchNonce",
      "outputs": [
        {
          "internalType": "bytes32",
          "name": "",
          "type": "bytes32"
        }
      ],
      "stateMutability": "view",
      "type": "function",
      "constant": true
    },
    {
      "inputs": [
        {
          "internalType": "address",
          "name": "_address",
          "type": "address"
        }
      ],
      "name": "deleteUser",
      "outputs": [],
      "stateMutability": "nonpayable",
      "type": "function"
    }
  ],
  "bytecode": "0x608060405234801561001057600080fd5b50610f24806100206000396000f3fe608060405234801561001057600080fd5b50600436106100625760003560e01c80635c60f2261461006757806383827dbb1461008357806393857dd3146100b3578063b17e8964146100e5578063e7c7294f14610101578063f3ed7da31461011f575b600080fd5b610081600480360381019061007c919061095e565b61014f565b005b61009d6004803603810190610098919061095e565b6102db565b6040516100aa9190610a24565b60405180910390f35b6100cd60048036038101906100c8919061095e565b61043b565b6040516100dc93929190610a6e565b60405180910390f35b6100ff60048036038101906100fa9190610be1565b61050d565b005b6101096106e8565b6040516101169190610c6c565b60405180910390f35b6101396004803603810190610134919061095e565b610725565b6040516101469190610c6c565b60405180910390f35b808073ffffffffffffffffffffffffffffffffffffffff163373ffffffffffffffffffffffffffffffffffffffff161461018857600080fd5b8173ffffffffffffffffffffffffffffffffffffffff166000808473ffffffffffffffffffffffffffffffffffffffff1673ffffffffffffffffffffffffffffffffffffffff16815260200190815260200160002060010160009054906101000a900473ffffffffffffffffffffffffffffffffffffffff1673ffffffffffffffffffffffffffffffffffffffff1614610257576040517f08c379a000000000000000000000000000000000000000000000000000000000815260040161024e90610cd3565b60405180910390fd5b6000808373ffffffffffffffffffffffffffffffffffffffff1673ffffffffffffffffffffffffffffffffffffffff168152602001908152602001600020600080820160006102a69190610809565b6001820160006101000a81549073ffffffffffffffffffffffffffffffffffffffff0219169055600282016000905550505050565b6060818073ffffffffffffffffffffffffffffffffffffffff163373ffffffffffffffffffffffffffffffffffffffff161461031657600080fd5b60006103206106e8565b9050806000808673ffffffffffffffffffffffffffffffffffffffff1673ffffffffffffffffffffffffffffffffffffffff168152602001908152602001600020600201819055506000808573ffffffffffffffffffffffffffffffffffffffff1673ffffffffffffffffffffffffffffffffffffffff16815260200190815260200160002060000180546103b490610d22565b80601f01602080910402602001604051908101604052809291908181526020018280546103e090610d22565b801561042d5780601f106104025761010080835404028352916020019161042d565b820191906000526020600020905b81548152906001019060200180831161041057829003601f168201915b505050505092505050919050565b600060205280600052604060002060009150905080600001805461045e90610d22565b80601f016020809104026020016040519081016040528092919081815260200182805461048a90610d22565b80156104d75780601f106104ac576101008083540402835291602001916104d7565b820191906000526020600020905b8154815290600101906020018083116104ba57829003601f168201915b5050505050908060010160009054906101000a900473ffffffffffffffffffffffffffffffffffffffff16908060020154905083565b8173ffffffffffffffffffffffffffffffffffffffff166000808473ffffffffffffffffffffffffffffffffffffffff1673ffffffffffffffffffffffffffffffffffffffff16815260200190815260200160002060010160009054906101000a900473ffffffffffffffffffffffffffffffffffffffff1673ffffffffffffffffffffffffffffffffffffffff1614156105dd576040517f08c379a00000000000000000000000000000000000000000000000000000000081526004016105d490610da0565b60405180910390fd5b60405180606001604052808481526020018373ffffffffffffffffffffffffffffffffffffffff1681526020018260405160200161061b9190610dfc565b604051602081830303815290604052805190602001208152506000808473ffffffffffffffffffffffffffffffffffffffff1673ffffffffffffffffffffffffffffffffffffffff168152602001908152602001600020600082015181600001908051906020019061068e929190610849565b5060208201518160010160006101000a81548173ffffffffffffffffffffffffffffffffffffffff021916908373ffffffffffffffffffffffffffffffffffffffff16021790555060408201518160020155905050505050565b6000426001436106f89190610e4c565b4060405160200161070a929190610ec2565b60405160208183030381529060405280519060200120905090565b60008173ffffffffffffffffffffffffffffffffffffffff166000808473ffffffffffffffffffffffffffffffffffffffff1673ffffffffffffffffffffffffffffffffffffffff16815260200190815260200160002060010160009054906101000a900473ffffffffffffffffffffffffffffffffffffffff1673ffffffffffffffffffffffffffffffffffffffff16146107c057600080fd5b6000808373ffffffffffffffffffffffffffffffffffffffff1673ffffffffffffffffffffffffffffffffffffffff168152602001908152602001600020600201549050919050565b50805461081590610d22565b6000825580601f106108275750610846565b601f01602090049060005260206000209081019061084591906108cf565b5b50565b82805461085590610d22565b90600052602060002090601f01602090048101928261087757600085556108be565b82601f1061089057805160ff19168380011785556108be565b828001600101855582156108be579182015b828111156108bd5782518255916020019190600101906108a2565b5b5090506108cb91906108cf565b5090565b5b808211156108e85760008160009055506001016108d0565b5090565b6000604051905090565b600080fd5b600080fd5b600073ffffffffffffffffffffffffffffffffffffffff82169050919050565b600061092b82610900565b9050919050565b61093b81610920565b811461094657600080fd5b50565b60008135905061095881610932565b92915050565b600060208284031215610974576109736108f6565b5b600061098284828501610949565b91505092915050565b600081519050919050565b600082825260208201905092915050565b60005b838110156109c55780820151818401526020810190506109aa565b838111156109d4576000848401525b50505050565b6000601f19601f8301169050919050565b60006109f68261098b565b610a008185610996565b9350610a108185602086016109a7565b610a19816109da565b840191505092915050565b60006020820190508181036000830152610a3e81846109eb565b905092915050565b610a4f81610920565b82525050565b6000819050919050565b610a6881610a55565b82525050565b60006060820190508181036000830152610a8881866109eb565b9050610a976020830185610a46565b610aa46040830184610a5f565b949350505050565b600080fd5b600080fd5b7f4e487b7100000000000000000000000000000000000000000000000000000000600052604160045260246000fd5b610aee826109da565b810181811067ffffffffffffffff82111715610b0d57610b0c610ab6565b5b80604052505050565b6000610b206108ec565b9050610b2c8282610ae5565b919050565b600067ffffffffffffffff821115610b4c57610b4b610ab6565b5b610b55826109da565b9050602081019050919050565b82818337600083830152505050565b6000610b84610b7f84610b31565b610b16565b905082815260208101848484011115610ba057610b9f610ab1565b5b610bab848285610b62565b509392505050565b600082601f830112610bc857610bc7610aac565b5b8135610bd8848260208601610b71565b91505092915050565b600080600060608486031215610bfa57610bf96108f6565b5b600084013567ffffffffffffffff811115610c1857610c176108fb565b5b610c2486828701610bb3565b9350506020610c3586828701610949565b925050604084013567ffffffffffffffff811115610c5657610c556108fb565b5b610c6286828701610bb3565b9150509250925092565b6000602082019050610c816000830184610a5f565b92915050565b7f55736572206e6f7420666f756e64000000000000000000000000000000000000600082015250565b6000610cbd600e83610996565b9150610cc882610c87565b602082019050919050565b60006020820190508181036000830152610cec81610cb0565b9050919050565b7f4e487b7100000000000000000000000000000000000000000000000000000000600052602260045260246000fd5b60006002820490506001821680610d3a57607f821691505b60208210811415610d4e57610d4d610cf3565b5b50919050565b7f616c726561647920726567697374657265640000000000000000000000000000600082015250565b6000610d8a601283610996565b9150610d9582610d54565b602082019050919050565b60006020820190508181036000830152610db981610d7d565b9050919050565b600081905092915050565b6000610dd68261098b565b610de08185610dc0565b9350610df08185602086016109a7565b80840191505092915050565b6000610e088284610dcb565b915081905092915050565b6000819050919050565b7f4e487b7100000000000000000000000000000000000000000000000000000000600052601160045260246000fd5b6000610e5782610e13565b9150610e6283610e13565b925082821015610e7557610e74610e1d565b5b828203905092915050565b6000819050919050565b610e9b610e9682610e13565b610e80565b82525050565b6000819050919050565b610ebc610eb782610a55565b610ea1565b82525050565b6000610ece8285610e8a565b602082019150610ede8284610eab565b602082019150819050939250505056fea264697066735822122069d68a1eba4d27fd2da33e2a6c588023b47d0b0e30d858171d1baf20dce044a264736f6c63430008090033",
  "immutableReferences": {},
  "source": "// SPDX-License-Identifier: MIT\npragma solidity ^0.8.9;\n\ncontract Auth  {\n\tmapping(address => user) public usersList;\n\n\tstruct user {\n\t\tstring username;\n\t\taddress addr;\n\t\tbytes32 nonce;\n\t}\n\n\t// events\n//\tevent userCreated(string username, address _address, bytes32 _nonce );\n//\tevent userFetched(address _address, bytes32 _nonce);\n\n\tmodifier onlyOwner(address _address) {\n    \trequire(msg.sender == _address);\n    \t_;\n\t}\n\t\n\tfunction getUserAndUpdateNonce(address _address) public onlyOwner(_address) returns (string memory) {\n\t\tbytes32 newNonce = generateRandomSequence();\n\t\tusersList[_address].nonce = newNonce;\n\t\treturn usersList[_address].username;\n\t}\n\n\n\t// ideally should be used a RNG contract or an oracle to generate truly random values\n\tfunction generateRandomSequence() public view returns (bytes32) {\n\t\treturn keccak256(abi.encodePacked(block.timestamp, blockhash(block.number - 1)));\n\t}\n\n\tfunction createUser(string memory _username, address _address, string memory _nonce) public {\t\n\t\t//userCount++;\n\t\trequire(usersList[_address].addr != _address, \"already registered\");\n\t\tusersList[_address] = user(_username, _address, keccak256(abi.encodePacked(_nonce)));\n\t//\temit userCreated(_username, _address, keccak256(abi.encodePacked(_nonce)));\n\t}\n\n    function fetchNonce(address _address) public view returns (bytes32) {\n        //keccak256(abi.encodePacked(...))  usato per comparare le stringhe e richiede meno gas\n        require (usersList[_address].addr == _address);\n\t//\temit userFetched(_address, usersList[_address].nonce);\n\t\treturn usersList[_address].nonce;\n    }\n\n\tfunction deleteUser(address _address) public onlyOwner(_address) {\n\t\trequire(usersList[_address].addr == _address, \"User not found\");\n\t\tdelete usersList[_address];\n\t}\n\n}\n",
  "sourcePath": "/Users/marco/Downloads/Authentication/auth-app/src/contracts/Auth.sol",
  "compiler": {
    "name": "solc",
    "version": "0.8.9+commit.e5eed63a.Emscripten.clang"
  },
  "schemaVersion": "3.4.11",
  "updatedAt": "2023-02-04T12:43:04.388Z",
  "networkType": "ethereum",
  "devdoc": {
    "kind": "dev",
    "methods": {},
    "version": 1
  },
  "userdoc": {
    "kind": "user",
    "methods": {},
    "version": 1
  }
}